{
  "contractName": "NaturalResource",
  "abi": [
    {
      "constant": false,
      "inputs": [],
      "name": "renounceOwnership",
      "outputs": [],
      "payable": false,
      "stateMutability": "nonpayable",
      "type": "function"
    },
    {
      "constant": true,
      "inputs": [],
      "name": "owner",
      "outputs": [
        {
          "name": "",
          "type": "address"
        }
      ],
      "payable": false,
      "stateMutability": "view",
      "type": "function"
    },
    {
      "constant": false,
      "inputs": [
        {
          "name": "_newOwner",
          "type": "address"
        }
      ],
      "name": "transferOwnership",
      "outputs": [],
      "payable": false,
      "stateMutability": "nonpayable",
      "type": "function"
    },
    {
      "inputs": [
        {
          "name": "resourceName",
          "type": "string"
        }
      ],
      "payable": false,
      "stateMutability": "nonpayable",
      "type": "constructor"
    },
    {
      "anonymous": false,
      "inputs": [
        {
          "indexed": true,
          "name": "previousOwner",
          "type": "address"
        }
      ],
      "name": "OwnershipRenounced",
      "type": "event"
    },
    {
      "anonymous": false,
      "inputs": [
        {
          "indexed": true,
          "name": "previousOwner",
          "type": "address"
        },
        {
          "indexed": true,
          "name": "newOwner",
          "type": "address"
        }
      ],
      "name": "OwnershipTransferred",
      "type": "event"
    },
    {
      "anonymous": false,
      "inputs": [
        {
          "indexed": false,
          "name": "objName",
          "type": "string"
        },
        {
          "indexed": false,
          "name": "details",
          "type": "string"
        },
        {
          "indexed": false,
          "name": "neededFunding",
          "type": "uint256"
        }
      ],
      "name": "ProposedObjective",
      "type": "event"
    },
    {
      "anonymous": false,
      "inputs": [
        {
          "indexed": false,
          "name": "objName",
          "type": "string"
        },
        {
          "indexed": false,
          "name": "money",
          "type": "uint256"
        }
      ],
      "name": "Tipped",
      "type": "event"
    },
    {
      "anonymous": false,
      "inputs": [
        {
          "indexed": false,
          "name": "objName",
          "type": "string"
        },
        {
          "indexed": false,
          "name": "money",
          "type": "uint256"
        }
      ],
      "name": "ClaimedMoney",
      "type": "event"
    },
    {
      "constant": false,
      "inputs": [
        {
          "name": "updatedIPFSList",
          "type": "string"
        },
        {
          "name": "objName",
          "type": "string"
        },
        {
          "name": "details",
          "type": "string"
        },
        {
          "name": "neededFunding",
          "type": "uint256"
        }
      ],
      "name": "proposeObjective",
      "outputs": [],
      "payable": false,
      "stateMutability": "nonpayable",
      "type": "function"
    },
    {
      "constant": false,
      "inputs": [
        {
          "name": "objName",
          "type": "string"
        }
      ],
      "name": "tip",
      "outputs": [],
      "payable": true,
      "stateMutability": "payable",
      "type": "function"
    },
    {
      "constant": false,
      "inputs": [
        {
          "name": "objName",
          "type": "string"
        }
      ],
      "name": "claim",
      "outputs": [],
      "payable": false,
      "stateMutability": "nonpayable",
      "type": "function"
    },
    {
      "constant": true,
      "inputs": [],
      "name": "getResourceName",
      "outputs": [
        {
          "name": "",
          "type": "string"
        }
      ],
      "payable": false,
      "stateMutability": "view",
      "type": "function"
    },
    {
      "constant": true,
      "inputs": [
        {
          "name": "objName",
          "type": "string"
        }
      ],
      "name": "getObjectiveResolver",
      "outputs": [
        {
          "name": "",
          "type": "address"
        }
      ],
      "payable": false,
      "stateMutability": "view",
      "type": "function"
    },
    {
      "constant": true,
      "inputs": [
        {
          "name": "objName",
          "type": "string"
        }
      ],
      "name": "getObjectiveDetails",
      "outputs": [
        {
          "name": "",
          "type": "string"
        }
      ],
      "payable": false,
      "stateMutability": "view",
      "type": "function"
    },
    {
      "constant": true,
      "inputs": [
        {
          "name": "objName",
          "type": "string"
        }
      ],
      "name": "objectiveIsClaimed",
      "outputs": [
        {
          "name": "",
          "type": "bool"
        }
      ],
      "payable": false,
      "stateMutability": "view",
      "type": "function"
    },
    {
      "constant": true,
      "inputs": [
        {
          "name": "objName",
          "type": "string"
        }
      ],
      "name": "getObjectiveFundingLevels",
      "outputs": [
        {
          "name": "",
          "type": "uint256"
        },
        {
          "name": "",
          "type": "uint256"
        }
      ],
      "payable": false,
      "stateMutability": "view",
      "type": "function"
    }
  ],
  "bytecode": "0x60806040523480156200001157600080fd5b506040516200161c3803806200161c83398101604052805160008054600160a060020a031916331790550180516200005190600290602084019062000059565b5050620000fe565b828054600181600116156101000203166002900490600052602060002090601f016020900481019282601f106200009c57805160ff1916838001178555620000cc565b82800160010185558215620000cc579182015b82811115620000cc578251825591602001919060010190620000af565b50620000da929150620000de565b5090565b620000fb91905b80821115620000da5760008155600101620000e5565b90565b61150e806200010e6000396000f3006080604052600436106100ae5763ffffffff7c01000000000000000000000000000000000000000000000000000000006000350416632e87787f81146100b35780634e7c910c1461012857806355d28649146101f6578063609b8f7a14610263578063715018a61461033c5780638da5cb5b146103515780638e52570114610366578063cb56393c1461037b578063e2611e44146103c7578063f2fde38b14610439578063f3fe12c91461045a575b600080fd5b3480156100bf57600080fd5b506040805160206004803580820135601f810184900484028501840190955284845261010c9436949293602493928401919081908401838280828437509497506104b39650505050505050565b60408051600160a060020a039092168252519081900360200190f35b34801561013457600080fd5b506040805160206004803580820135601f81018490048402850184019095528484526101819436949293602493928401919081908401838280828437509497506105249650505050505050565b6040805160208082528351818301528351919283929083019185019080838360005b838110156101bb5781810151838201526020016101a3565b50505050905090810190601f1680156101e85780820380516001836020036101000a031916815260200191505b509250505060405180910390f35b34801561020257600080fd5b506040805160206004803580820135601f810184900484028501840190955284845261024f94369492936024939284019190819084018382808284375094975061061c9650505050505050565b604080519115158252519081900360200190f35b34801561026f57600080fd5b506040805160206004803580820135601f810184900484028501840190955284845261033a94369492936024939284019190819084018382808284375050604080516020601f89358b018035918201839004830284018301909452808352979a99988101979196509182019450925082915084018382808284375050604080516020601f89358b018035918201839004830284018301909452808352979a999881019791965091820194509250829150840183828082843750949750509335945061068a9350505050565b005b34801561034857600080fd5b5061033a6109f6565b34801561035d57600080fd5b5061010c610a62565b34801561037257600080fd5b50610181610a71565b6040805160206004803580820135601f810184900484028501840190955284845261033a943694929360249392840191908190840183828082843750949750610b059650505050505050565b3480156103d357600080fd5b506040805160206004803580820135601f8101849004840285018401909552848452610420943694929360249392840191908190840183828082843750949750610d689650505050505050565b6040805192835260208301919091528051918290030190f35b34801561044557600080fd5b5061033a600160a060020a0360043516610e3d565b34801561046657600080fd5b506040805160206004803580820135601f810184900484028501840190955284845261033a943694929360249392840191908190840183828082843750949750610e609650505050505050565b60006004826040518082805190602001908083835b602083106104e75780518252601f1990920191602091820191016104c8565b51815160209384036101000a6000190180199092169116179052920194855250604051938490030190922054600160a060020a0316949350505050565b60606004826040518082805190602001908083835b602083106105585780518252601f199092019160209182019101610539565b518151600019602094850361010090810a8201928316921993909316919091179092529490920196875260408051978890038201882060019081018054601f600293821615909802909501909416049485018290048202880182019052838752909450919250508301828280156106105780601f106105e557610100808354040283529160200191610610565b820191906000526020600020905b8154815290600101906020018083116105f357829003601f168201915b50505050509050919050565b60006004826040518082805190602001908083835b602083106106505780518252601f199092019160209182019101610631565b51815160209384036101000a600019018019909216911617905292019485525060405193849003019092206004015460ff16949350505050565b61069261140f565b6003846040518082805190602001908083835b602083106106c45780518252601f1990920191602091820191016106a5565b51815160209384036101000a600019018019909216911617905292019485525060405193849003019092205460ff161591506107729050576040805160e560020a62461bcd02815260206004820152602560248201527f54686973206f626a6563746976652068617320616c7265616479206265656e2060448201527f74616b656e000000000000000000000000000000000000000000000000000000606482015290519081900360840190fd5b60016003856040518082805190602001908083835b602083106107a65780518252601f199092019160209182019101610787565b51815160209384036101000a6000190180199092169116179052920194855250604080519485900382018520805460ff19169615159690961790955560a08401855233845283810188905260008486018190526060850188905260808501529351885193955085946004948a94509192508291908401908083835b602083106108405780518252601f199092019160209182019101610821565b51815160209384036101000a60001901801990921691161790529201948552506040519384900381019093208451815473ffffffffffffffffffffffffffffffffffffffff1916600160a060020a0390911617815584840151805191946108af9450600186019350019061144a565b50604082015181600201556060820151816003015560808201518160040160006101000a81548160ff0219169083151502179055509050507f24c955436700e71614ae4af58df2186fcc3a8be7f7283f1fd28b453b97ff65f1848484604051808060200180602001848152602001838103835286818151815260200191508051906020019080838360005b8381101561095257818101518382015260200161093a565b50505050905090810190601f16801561097f5780820380516001836020036101000a031916815260200191505b50838103825285518152855160209182019187019080838360005b838110156109b257818101518382015260200161099a565b50505050905090810190601f1680156109df5780820380516001836020036101000a031916815260200191505b509550505050505060405180910390a15050505050565b600054600160a060020a03163314610a0d57600080fd5b60008054604051600160a060020a03909116917ff8df31144d9c2f0f6b59d69b8b98abd5459d07f2742c4df920b25aae33c6482091a26000805473ffffffffffffffffffffffffffffffffffffffff19169055565b600054600160a060020a031681565b60028054604080516020601f6000196101006001871615020190941685900493840181900481028201810190925282815260609390929091830182828015610afa5780601f10610acf57610100808354040283529160200191610afa565b820191906000526020600020905b815481529060010190602001808311610add57829003601f168201915b505050505090505b90565b806004816040518082805190602001908083835b60208310610b385780518252601f199092019160209182019101610b19565b51815160209384036101000a600019018019909216911617905292019485525060405193849003019092206004015460ff16159150610be99050576040805160e560020a62461bcd02815260206004820152603260248201527f546865206f626a6563746976652077617320616c72656164792066756c6c792060448201527f66756e64656420616e6420636c61696d65640000000000000000000000000000606482015290519081900360840190fd5b610c57346004846040518082805190602001908083835b60208310610c1f5780518252601f199092019160209182019101610c00565b51815160209384036101000a60001901801990921691161790529201948552506040519384900301909220600201549291505061137f565b6004836040518082805190602001908083835b60208310610c895780518252601f199092019160209182019101610c6a565b6001836020036101000a0380198251168184511680821785525050505050509050019150509081526020016040518091039020600201819055507f4c37d3611c61f6c0a091197574272940725a13412d9d72db9f29bf71f90d72cb82346040518080602001838152602001828103825284818151815260200191508051906020019080838360005b83811015610d29578181015183820152602001610d11565b50505050905090810190601f168015610d565780820380516001836020036101000a031916815260200191505b50935050505060405180910390a15050565b6000806004836040518082805190602001908083835b60208310610d9d5780518252601f199092019160209182019101610d7e565b51815160209384036101000a60001901801990921691161790529201948552506040519384900381018420600201548751909460049450889350918291908401908083835b60208310610e015780518252601f199092019160209182019101610de2565b51815160209384036101000a60001901801990921691161790529201948552506040519384900301909220600301549296929550919350505050565b600054600160a060020a03163314610e5457600080fd5b610e5d81611392565b50565b806004816040518082805190602001908083835b60208310610e935780518252601f199092019160209182019101610e74565b51815160209384036101000a600019018019909216911617905292019485525060405193849003019092206004015460ff16159150610f449050576040805160e560020a62461bcd02815260206004820152603260248201527f546865206f626a6563746976652077617320616c72656164792066756c6c792060448201527f66756e64656420616e6420636c61696d65640000000000000000000000000000606482015290519081900360840190fd5b816004816040518082805190602001908083835b60208310610f775780518252601f199092019160209182019101610f58565b51815160209384036101000a6000190180199092169116179052920194855250604051938490030190922054600160a060020a03163314915061102c9050576040805160e560020a62461bcd02815260206004820152602f60248201527f5468652073656e646572206973206e6f7420746865207265736f6c766572206f60448201527f6620746865206f626a6563746976650000000000000000000000000000000000606482015290519081900360840190fd5b6004836040518082805190602001908083835b6020831061105e5780518252601f19909201916020918201910161103f565b51815160209384036101000a60001901801990921691161790529201948552506040519384900381018420600301548751909460049450889350918291908401908083835b602083106110c25780518252601f1990920191602091820191016110a3565b51815160209384036101000a6000190180199092169116179052920194855250604051938490030190922060020154929092101591506111749050576040805160e560020a62461bcd02815260206004820152602960248201527f596f7520646f206e6f74206861766520656e6f756768206d6f6e65792067617460448201527f6865726564207965740000000000000000000000000000000000000000000000606482015290519081900360840190fd5b60016004846040518082805190602001908083835b602083106111a85780518252601f199092019160209182019101611189565b51815160209384036101000a600019018019909216911617905292019485525060405193849003810184206004908101805460ff191696151596909617909555875133956108fc95909450899350918291908401908083835b602083106112205780518252601f199092019160209182019101611201565b51815160209384036101000a600019018019909216911617905292019485525060405193849003018320600201548015949094029392915060009050818181858888f19350505050158015611279573d6000803e3d6000fd5b507f4c4e7643d416d2bfea06d6cd82b3f56af3cc0573c56d1df53c64148418b368d2836004856040518082805190602001908083835b602083106112ce5780518252601f1990920191602091820191016112af565b51815160209384036101000a600019018019909216911617905292019485525060408051948590038201852060020154858301819052818652865191860191909152855190949350839250606083019186019080838360005b8381101561133f578181015183820152602001611327565b50505050905090810190601f16801561136c5780820380516001836020036101000a031916815260200191505b50935050505060405180910390a1505050565b8181018281101561138c57fe5b92915050565b600160a060020a03811615156113a757600080fd5b60008054604051600160a060020a03808516939216917f8be0079c531659141344cd1fd0a4f28419497f9722a3daafe3b4186f6b6457e091a36000805473ffffffffffffffffffffffffffffffffffffffff1916600160a060020a0392909216919091179055565b60a0604051908101604052806000600160a060020a031681526020016060815260200160008152602001600081526020016000151581525090565b828054600181600116156101000203166002900490600052602060002090601f016020900481019282601f1061148b57805160ff19168380011785556114b8565b828001600101855582156114b8579182015b828111156114b857825182559160200191906001019061149d565b506114c49291506114c8565b5090565b610b0291905b808211156114c457600081556001016114ce5600a165627a7a723058203d8804abab476f4c0265568602cbce21aae45f5d39113f24883a4e2c21dbaf950029",
  "source": "pragma solidity 0.4.25;\n\n/**\n * @title NaturalResource\n * A NaturalResource has many needs. In this contract we call these needs 'objectives'\n   Each objective has a team that will accomplish it (the resolver) and a minimum level of funds which need to be gathered\n */\n\nimport \"contracts/zeppelin/ownership/Ownable.sol\";\nimport \"contracts/zeppelin/SafeMath.sol\";\n\nimport \"contracts/interfaces/INaturalResource.sol\";\n\ncontract NaturalResource is INaturalResource, Ownable {\n\n    using SafeMath for uint256;\n\n    struct Objective {\n\n      address resolver;\n\n      //IPFS address to the details of the objective\n\n      string objDetails;\n\n      //Funding data\n\n      uint256 currentFunding;\n\n      uint256 necessaryFunding;\n\n      bool claimed;\n\n    }\n\n    //IPFS hash where all objectives are stored\n\n    string objectivesList;\n\n    //What type of natural resource is this?\n\n    string naturalResourceType;\n\n    /**\n\n    We use this to determine if an objective is already taken because if we check with\n    objectiveData, web3 might through an error with uninitialized objectives\n\n    **/\n\n    mapping (string => bool) objectiveTaken;\n\n    mapping (string => Objective) objectiveData;\n\n    modifier onlyObjectiveCreator(string objName) {\n\n      require(msg.sender == objectiveData[objName].resolver, \"The sender is not the resolver of the objective\");\n\n      _;\n\n    }\n\n    modifier alreadyClaimed(string objName) {\n\n      require(objectiveData[objName].claimed == false, \"The objective was already fully funded and claimed\");\n\n      _;\n\n    }\n\n    /**\n     * @dev The constructor sets the original `trigger` of the contract to the sender\n     * account.\n     */\n\n    constructor(string resourceName) public {\n\n      naturalResourceType = resourceName;\n\n    }\n\n    /**\n     * @dev Propose a new objective for this resource\n     * @param updatedIPFSList The new IPFS hash of the list of objectives\n     * @param objName The name of the objective\n     * @param details The IPFS hash where the details of this objective are stored\n     * @param neededFunding How much money this object needs\n     */\n\n    function proposeObjective(string updatedIPFSList, string objName,\n        string details, uint256 neededFunding) public {\n\n      require(objectiveTaken[objName] == false, \"This objective has already been taken\");\n\n      objectiveTaken[objName] = true;\n\n      Objective memory newObjective = Objective(msg.sender, details, 0, neededFunding, false);\n\n      objectiveData[objName] = newObjective;\n\n      emit ProposedObjective(objName, details, neededFunding);\n\n    }\n\n    /**\n     * @dev Propose a new objective for this resource\n     * @param objName The name of the objective to tip\n     */\n\n    function tip(string objName) public payable alreadyClaimed(objName) {\n\n      objectiveData[objName].currentFunding = objectiveData[objName].currentFunding.add(msg.value);\n\n      emit Tipped(objName, msg.value);\n\n    }\n\n    /**\n     * @dev Claim the money for an objective\n     * @param objName The name of the objective to tip\n     */\n\n    function claim(string objName) public alreadyClaimed(objName) onlyObjectiveCreator(objName) {\n\n      require(objectiveData[objName].currentFunding >= objectiveData[objName].necessaryFunding,\n          \"You do not have enough money gathered yet\");\n\n      objectiveData[objName].claimed = true;\n\n      msg.sender.transfer(objectiveData[objName].currentFunding);\n\n      emit ClaimedMoney(objName, objectiveData[objName].currentFunding);\n\n    }\n\n    //GETTERS\n\n    function getResourceName() public view returns (string) {\n\n      return naturalResourceType;\n\n    }\n\n    function getObjectiveResolver(string objName) public view returns (address) {\n\n      return objectiveData[objName].resolver;\n\n    }\n\n    function getObjectiveDetails(string objName) public view returns (string) {\n\n      return objectiveData[objName].objDetails;\n\n    }\n\n    function objectiveIsClaimed(string objName) public view returns (bool) {\n\n      return objectiveData[objName].claimed;\n\n    }\n\n    function getObjectiveFundingLevels(string objName) public view returns (uint256, uint256) {\n\n      return (objectiveData[objName].currentFunding, objectiveData[objName].necessaryFunding);\n\n    }\n\n}\n",
  "sourcePath": "/home/stefan/Work/token_tree/contracts/NaturalResource.sol",
  "compiler": {
    "name": "solc",
    "version": "0.4.25+commit.59dbf8f1.Emscripten.clang"
  },
  "schemaVersion": "2.0.2",
  "updatedAt": "2019-01-16T15:43:47.001Z"
}