{
  "contractName": "NatureRegistry",
  "abi": [
    {
      "inputs": [],
      "payable": false,
      "stateMutability": "nonpayable",
      "type": "constructor"
    },
    {
      "anonymous": false,
      "inputs": [
        {
          "indexed": false,
          "name": "caller",
          "type": "address"
        },
        {
          "indexed": false,
          "name": "newManager",
          "type": "address"
        }
      ],
      "name": "AddedManager",
      "type": "event"
    },
    {
      "anonymous": false,
      "inputs": [
        {
          "indexed": false,
          "name": "caller",
          "type": "address"
        },
        {
          "indexed": false,
          "name": "allAreas",
          "type": "string"
        },
        {
          "indexed": false,
          "name": "newArea",
          "type": "string"
        }
      ],
      "name": "AddedArea",
      "type": "event"
    },
    {
      "anonymous": false,
      "inputs": [
        {
          "indexed": false,
          "name": "area",
          "type": "string"
        },
        {
          "indexed": false,
          "name": "resourceName",
          "type": "string"
        },
        {
          "indexed": false,
          "name": "geoPosition",
          "type": "string"
        }
      ],
      "name": "AddedResource",
      "type": "event"
    },
    {
      "anonymous": false,
      "inputs": [
        {
          "indexed": false,
          "name": "caller",
          "type": "address"
        },
        {
          "indexed": false,
          "name": "area",
          "type": "string"
        },
        {
          "indexed": false,
          "name": "resource",
          "type": "uint256"
        }
      ],
      "name": "ToggledProtection",
      "type": "event"
    },
    {
      "constant": false,
      "inputs": [
        {
          "name": "manager",
          "type": "address"
        }
      ],
      "name": "addManager",
      "outputs": [],
      "payable": false,
      "stateMutability": "nonpayable",
      "type": "function"
    },
    {
      "constant": false,
      "inputs": [
        {
          "name": "_allAreas",
          "type": "string"
        },
        {
          "name": "newArea",
          "type": "string"
        }
      ],
      "name": "addArea",
      "outputs": [],
      "payable": false,
      "stateMutability": "nonpayable",
      "type": "function"
    },
    {
      "constant": false,
      "inputs": [
        {
          "name": "area",
          "type": "string"
        },
        {
          "name": "resourceName",
          "type": "string"
        },
        {
          "name": "geoPosition",
          "type": "string"
        }
      ],
      "name": "addResource",
      "outputs": [],
      "payable": false,
      "stateMutability": "nonpayable",
      "type": "function"
    },
    {
      "constant": false,
      "inputs": [
        {
          "name": "area",
          "type": "string"
        },
        {
          "name": "resourcePosition",
          "type": "uint256"
        }
      ],
      "name": "toggleProtection",
      "outputs": [],
      "payable": false,
      "stateMutability": "nonpayable",
      "type": "function"
    },
    {
      "constant": true,
      "inputs": [],
      "name": "getAllAreas",
      "outputs": [
        {
          "name": "",
          "type": "string"
        }
      ],
      "payable": false,
      "stateMutability": "view",
      "type": "function"
    },
    {
      "constant": true,
      "inputs": [
        {
          "name": "manager",
          "type": "address"
        }
      ],
      "name": "isManager",
      "outputs": [
        {
          "name": "",
          "type": "bool"
        }
      ],
      "payable": false,
      "stateMutability": "view",
      "type": "function"
    },
    {
      "constant": true,
      "inputs": [
        {
          "name": "area",
          "type": "string"
        }
      ],
      "name": "isAreaAvailable",
      "outputs": [
        {
          "name": "",
          "type": "bool"
        }
      ],
      "payable": false,
      "stateMutability": "view",
      "type": "function"
    },
    {
      "constant": true,
      "inputs": [
        {
          "name": "area",
          "type": "string"
        },
        {
          "name": "resourcePosition",
          "type": "uint256"
        }
      ],
      "name": "getResourceFromArea",
      "outputs": [
        {
          "name": "",
          "type": "address"
        },
        {
          "name": "",
          "type": "string"
        },
        {
          "name": "",
          "type": "bool"
        }
      ],
      "payable": false,
      "stateMutability": "view",
      "type": "function"
    }
  ],
  "bytecode": "0x608060405234801561001057600080fd5b5060018060003373ffffffffffffffffffffffffffffffffffffffff1673ffffffffffffffffffffffffffffffffffffffff16815260200190815260200160002060006101000a81548160ff02191690831515021790555061367f806100776000396000f30060806040526004361061008e576000357c0100000000000000000000000000000000000000000000000000000000900463ffffffff16806315a12a061461009357806319b7e5fb146101145780632d06177a1461020957806369d501531461024c5780638b36c3da146103765780638d44e2db14610406578063b83a266c14610479578063f3ae241514610528575b600080fd5b34801561009f57600080fd5b506100fa600480360381019080803590602001908201803590602001908080601f0160208091040260200160405190810160405280939291908181526020018383808284378201915050505050509192919290505050610583565b604051808215151515815260200191505060405180910390f35b34801561012057600080fd5b50610207600480360381019080803590602001908201803590602001908080601f0160208091040260200160405190810160405280939291908181526020018383808284378201915050505050509192919290803590602001908201803590602001908080601f0160208091040260200160405190810160405280939291908181526020018383808284378201915050505050509192919290803590602001908201803590602001908080601f0160208091040260200160405190810160405280939291908181526020018383808284378201915050505050509192919290505050610605565b005b34801561021557600080fd5b5061024a600480360381019080803573ffffffffffffffffffffffffffffffffffffffff169060200190929190505050610b34565b005b34801561025857600080fd5b506102bd600480360381019080803590602001908201803590602001908080601f016020809104026020016040519081016040528093929190818152602001838380828437820191505050505050919291929080359060200190929190505050610ddb565b604051808473ffffffffffffffffffffffffffffffffffffffff1673ffffffffffffffffffffffffffffffffffffffff1681526020018060200183151515158152602001828103825284818151815260200191508051906020019080838360005b8381101561033957808201518184015260208101905061031e565b50505050905090810190601f1680156103665780820380516001836020036101000a031916815260200191505b5094505050505060405180910390f35b34801561038257600080fd5b5061038b611054565b6040518080602001828103825283818151815260200191508051906020019080838360005b838110156103cb5780820151818401526020810190506103b0565b50505050905090810190601f1680156103f85780820380516001836020036101000a031916815260200191505b509250505060405180910390f35b34801561041257600080fd5b50610477600480360381019080803590602001908201803590602001908080601f0160208091040260200160405190810160405280939291908181526020018383808284378201915050505050509192919290803590602001909291905050506110f6565b005b34801561048557600080fd5b50610526600480360381019080803590602001908201803590602001908080601f0160208091040260200160405190810160405280939291908181526020018383808284378201915050505050509192919290803590602001908201803590602001908080601f01602080910402602001604051908101604052809392919081815260200183838082843782019150505050505091929192905050506115d1565b005b34801561053457600080fd5b50610569600480360381019080803573ffffffffffffffffffffffffffffffffffffffff169060200190929190505050611875565b604051808215151515815260200191505060405180910390f35b60006002826040518082805190602001908083835b6020831015156105bd5780518252602082019150602081019050602083039250610598565b6001836020036101000a038019825116818451168082178552505050505050905001915050908152602001604051809103902060009054906101000a900460ff169050919050565b600061060f6118cb565b60011515600160003373ffffffffffffffffffffffffffffffffffffffff1673ffffffffffffffffffffffffffffffffffffffff16815260200190815260200160002060009054906101000a900460ff1615151415156106d7576040517f08c379a000000000000000000000000000000000000000000000000000000000815260040180806020018281038252601b8152602001807f5468652063616c6c6572206973206e6f742061206d616e61676572000000000081525060200191505060405180910390fd5b600115156002866040518082805190602001908083835b60208310151561071357805182526020820191506020810190506020830392506106ee565b6001836020036101000a038019825116818451168082178552505050505050905001915050908152602001604051809103902060009054906101000a900460ff1615151415156107cb576040517f08c379a000000000000000000000000000000000000000000000000000000000815260040180806020018281038252601b8152602001807f546869732061726561206973206e6f742072656769737465726564000000000081525060200191505060405180910390fd5b836107d4611905565b8080602001828103825283818151815260200191508051906020019080838360005b838110156108115780820151818401526020810190506107f6565b50505050905090810190601f16801561083e5780820380516001836020036101000a031916815260200191505b5092505050604051809103906000f08015801561085f573d6000803e3d6000fd5b5091506060604051908101604052808373ffffffffffffffffffffffffffffffffffffffff1681526020018481526020016001151581525090506003856040518082805190602001908083835b6020831015156108d157805182526020820191506020810190506020830392506108ac565b6001836020036101000a0380198251168184511680821785525050505050509050019150509081526020016040518091039020819080600181540180825580915050906001820390600052602060002090600302016000909192909190915060008201518160000160006101000a81548173ffffffffffffffffffffffffffffffffffffffff021916908373ffffffffffffffffffffffffffffffffffffffff1602179055506020820151816001019080519060200190610993929190611915565b5060408201518160020160006101000a81548160ff0219169083151502179055505050507fd17d004b84f0d502cc37c1589e8ff373474e958c075c55bc2451b086be9c2ce485858560405180806020018060200180602001848103845287818151815260200191508051906020019080838360005b83811015610a23578082015181840152602081019050610a08565b50505050905090810190601f168015610a505780820380516001836020036101000a031916815260200191505b50848103835286818151815260200191508051906020019080838360005b83811015610a89578082015181840152602081019050610a6e565b50505050905090810190601f168015610ab65780820380516001836020036101000a031916815260200191505b50848103825285818151815260200191508051906020019080838360005b83811015610aef578082015181840152602081019050610ad4565b50505050905090810190601f168015610b1c5780820380516001836020036101000a031916815260200191505b50965050505050505060405180910390a15050505050565b60011515600160003373ffffffffffffffffffffffffffffffffffffffff1673ffffffffffffffffffffffffffffffffffffffff16815260200190815260200160002060009054906101000a900460ff161515141515610bfc576040517f08c379a000000000000000000000000000000000000000000000000000000000815260040180806020018281038252601b8152602001807f5468652063616c6c6572206973206e6f742061206d616e61676572000000000081525060200191505060405180910390fd5b60001515600160008373ffffffffffffffffffffffffffffffffffffffff1673ffffffffffffffffffffffffffffffffffffffff16815260200190815260200160002060009054906101000a900460ff161515141515610cea576040517f08c379a00000000000000000000000000000000000000000000000000000000081526004018080602001828103825260218152602001807f54686973206164647265737320697320616c72656164792061206d616e61676581526020017f720000000000000000000000000000000000000000000000000000000000000081525060400191505060405180910390fd5b60018060008373ffffffffffffffffffffffffffffffffffffffff1673ffffffffffffffffffffffffffffffffffffffff16815260200190815260200160002060006101000a81548160ff0219169083151502179055507f79024a3056a9b8e97e786a99417ac76556e83c0ca277e236a20c28f75f1ad80e3382604051808373ffffffffffffffffffffffffffffffffffffffff1673ffffffffffffffffffffffffffffffffffffffff1681526020018273ffffffffffffffffffffffffffffffffffffffff1673ffffffffffffffffffffffffffffffffffffffff1681526020019250505060405180910390a150565b6000606060006003856040518082805190602001908083835b602083101515610e195780518252602082019150602081019050602083039250610df4565b6001836020036101000a038019825116818451168082178552505050505050905001915050908152602001604051809103902084815481101515610e5957fe5b906000526020600020906003020160000160009054906101000a900473ffffffffffffffffffffffffffffffffffffffff166003866040518082805190602001908083835b602083101515610ec35780518252602082019150602081019050602083039250610e9e565b6001836020036101000a038019825116818451168082178552505050505050905001915050908152602001604051809103902085815481101515610f0357fe5b90600052602060002090600302016001016003876040518082805190602001908083835b602083101515610f4c5780518252602082019150602081019050602083039250610f27565b6001836020036101000a038019825116818451168082178552505050505050905001915050908152602001604051809103902086815481101515610f8c57fe5b906000526020600020906003020160020160009054906101000a900460ff16818054600181600116156101000203166002900480601f0160208091040260200160405190810160405280929190818152602001828054600181600116156101000203166002900480156110405780601f1061101557610100808354040283529160200191611040565b820191906000526020600020905b81548152906001019060200180831161102357829003601f168201915b505050505091509250925092509250925092565b606060008054600181600116156101000203166002900480601f0160208091040260200160405190810160405280929190818152602001828054600181600116156101000203166002900480156110ec5780601f106110c1576101008083540402835291602001916110ec565b820191906000526020600020905b8154815290600101906020018083116110cf57829003601f168201915b5050505050905090565b60011515600160003373ffffffffffffffffffffffffffffffffffffffff1673ffffffffffffffffffffffffffffffffffffffff16815260200190815260200160002060009054906101000a900460ff1615151415156111be576040517f08c379a000000000000000000000000000000000000000000000000000000000815260040180806020018281038252601b8152602001807f5468652063616c6c6572206973206e6f742061206d616e61676572000000000081525060200191505060405180910390fd5b600115156002836040518082805190602001908083835b6020831015156111fa57805182526020820191506020810190506020830392506111d5565b6001836020036101000a038019825116818451168082178552505050505050905001915050908152602001604051809103902060009054906101000a900460ff1615151415156112b2576040517f08c379a000000000000000000000000000000000000000000000000000000000815260040180806020018281038252601b8152602001807f546869732061726561206973206e6f742072656769737465726564000000000081525060200191505060405180910390fd5b806003836040518082805190602001908083835b6020831015156112eb57805182526020820191506020810190506020830392506112c6565b6001836020036101000a0380198251168184511680821785525050505050509050019150509081526020016040518091039020805490501115156113bd576040517f08c379a000000000000000000000000000000000000000000000000000000000815260040180806020018281038252602a8152602001807f546865207265736f7572636520706f736974696f6e206973206e6f742077697481526020017f68696e20626f756e64730000000000000000000000000000000000000000000081525060400191505060405180910390fd5b6003826040518082805190602001908083835b6020831015156113f557805182526020820191506020810190506020830392506113d0565b6001836020036101000a03801982511681845116808217855250505050505090500191505090815260200160405180910390208181548110151561143557fe5b906000526020600020906003020160020160009054906101000a900460ff16156003836040518082805190602001908083835b60208310151561148d5780518252602082019150602081019050602083039250611468565b6001836020036101000a0380198251168184511680821785525050505050509050019150509081526020016040518091039020828154811015156114cd57fe5b906000526020600020906003020160020160006101000a81548160ff0219169083151502179055507fa9868a060e7f531962c23b9dbc1e054dc6f117ab5c3249b55f418f2e1c1ec9ba338383604051808473ffffffffffffffffffffffffffffffffffffffff1673ffffffffffffffffffffffffffffffffffffffff16815260200180602001838152602001828103825284818151815260200191508051906020019080838360005b83811015611591578082015181840152602081019050611576565b50505050905090810190601f1680156115be5780820380516001836020036101000a031916815260200191505b5094505050505060405180910390a15050565b60011515600160003373ffffffffffffffffffffffffffffffffffffffff1673ffffffffffffffffffffffffffffffffffffffff16815260200190815260200160002060009054906101000a900460ff161515141515611699576040517f08c379a000000000000000000000000000000000000000000000000000000000815260040180806020018281038252601b8152602001807f5468652063616c6c6572206973206e6f742061206d616e61676572000000000081525060200191505060405180910390fd5b81600090805190602001906116af929190611995565b5060016002826040518082805190602001908083835b6020831015156116ea57805182526020820191506020810190506020830392506116c5565b6001836020036101000a038019825116818451168082178552505050505050905001915050908152602001604051809103902060006101000a81548160ff0219169083151502179055507f5a8cb803c2f900bc2f69d2e17629adb40c91c51f81d40d6b158d86d6b6300c1b338383604051808473ffffffffffffffffffffffffffffffffffffffff1673ffffffffffffffffffffffffffffffffffffffff1681526020018060200180602001838103835285818151815260200191508051906020019080838360005b838110156117ce5780820151818401526020810190506117b3565b50505050905090810190601f1680156117fb5780820380516001836020036101000a031916815260200191505b50838103825284818151815260200191508051906020019080838360005b83811015611834578082015181840152602081019050611819565b50505050905090810190601f1680156118615780820380516001836020036101000a031916815260200191505b509550505050505060405180910390a15050565b6000600160008373ffffffffffffffffffffffffffffffffffffffff1673ffffffffffffffffffffffffffffffffffffffff16815260200190815260200160002060009054906101000a900460ff169050919050565b606060405190810160405280600073ffffffffffffffffffffffffffffffffffffffff168152602001606081526020016000151581525090565b604051611c1980611a3b83390190565b828054600181600116156101000203166002900490600052602060002090601f016020900481019282601f1061195657805160ff1916838001178555611984565b82800160010185558215611984579182015b82811115611983578251825591602001919060010190611968565b5b5090506119919190611a15565b5090565b828054600181600116156101000203166002900490600052602060002090601f016020900481019282601f106119d657805160ff1916838001178555611a04565b82800160010185558215611a04579182015b82811115611a035782518255916020019190600101906119e8565b5b509050611a119190611a15565b5090565b611a3791905b80821115611a33576000816000905550600101611a1b565b5090565b90560060806040523480156200001157600080fd5b5060405162001c1938038062001c1983398101806040528101908080518201929190505050336000806101000a81548173ffffffffffffffffffffffffffffffffffffffff021916908373ffffffffffffffffffffffffffffffffffffffff16021790555080600290805190602001906200008e92919062000096565b505062000145565b828054600181600116156101000203166002900490600052602060002090601f016020900481019282601f10620000d957805160ff19168380011785556200010a565b828001600101855582156200010a579182015b8281111562000109578251825591602001919060010190620000ec565b5b5090506200011991906200011d565b5090565b6200014291905b808211156200013e57600081600090555060010162000124565b5090565b90565b611ac480620001556000396000f3006080604052600436106100af576000357c0100000000000000000000000000000000000000000000000000000000900463ffffffff1680632e87787f146100b45780634e7c910c1461015d57806355d286491461023f578063609b8f7a146102c0578063715018a6146103bf5780638da5cb5b146103d65780638e5257011461042d578063cb56393c146104bd578063e2611e4414610519578063f2fde38b1461059d578063f3fe12c9146105e0575b600080fd5b3480156100c057600080fd5b5061011b600480360381019080803590602001908201803590602001908080601f0160208091040260200160405190810160405280939291908181526020018383808284378201915050505050509192919290505050610649565b604051808273ffffffffffffffffffffffffffffffffffffffff1673ffffffffffffffffffffffffffffffffffffffff16815260200191505060405180910390f35b34801561016957600080fd5b506101c4600480360381019080803590602001908201803590602001908080601f01602080910402602001604051908101604052809392919081815260200183838082843782019150505050505091929192905050506106e1565b6040518080602001828103825283818151815260200191508051906020019080838360005b838110156102045780820151818401526020810190506101e9565b50505050905090810190601f1680156102315780820380516001836020036101000a031916815260200191505b509250505060405180910390f35b34801561024b57600080fd5b506102a6600480360381019080803590602001908201803590602001908080601f01602080910402602001604051908101604052809392919081815260200183838082843782019150505050505091929192905050506107f1565b604051808215151515815260200191505060405180910390f35b3480156102cc57600080fd5b506103bd600480360381019080803590602001908201803590602001908080601f0160208091040260200160405190810160405280939291908181526020018383808284378201915050505050509192919290803590602001908201803590602001908080601f0160208091040260200160405190810160405280939291908181526020018383808284378201915050505050509192919290803590602001908201803590602001908080601f016020809104026020016040519081016040528093929190818152602001838380828437820191505050505050919291929080359060200190929190505050610876565b005b3480156103cb57600080fd5b506103d4610c7f565b005b3480156103e257600080fd5b506103eb610d81565b604051808273ffffffffffffffffffffffffffffffffffffffff1673ffffffffffffffffffffffffffffffffffffffff16815260200191505060405180910390f35b34801561043957600080fd5b50610442610da6565b6040518080602001828103825283818151815260200191508051906020019080838360005b83811015610482578082015181840152602081019050610467565b50505050905090810190601f1680156104af5780820380516001836020036101000a031916815260200191505b509250505060405180910390f35b610517600480360381019080803590602001908201803590602001908080601f0160208091040260200160405190810160405280939291908181526020018383808284378201915050505050509192919290505050610e48565b005b34801561052557600080fd5b50610580600480360381019080803590602001908201803590602001908080601f0160208091040260200160405190810160405280939291908181526020018383808284378201915050505050509192919290505050611101565b604051808381526020018281526020019250505060405180910390f35b3480156105a957600080fd5b506105de600480360381019080803573ffffffffffffffffffffffffffffffffffffffff1690602001909291905050506111eb565b005b3480156105ec57600080fd5b50610647600480360381019080803590602001908201803590602001908080601f0160208091040260200160405190810160405280939291908181526020018383808284378201915050505050509192919290505050611252565b005b60006004826040518082805190602001908083835b602083101515610683578051825260208201915060208101905060208303925061065e565b6001836020036101000a038019825116818451168082178552505050505050905001915050908152602001604051809103902060000160009054906101000a900473ffffffffffffffffffffffffffffffffffffffff169050919050565b60606004826040518082805190602001908083835b60208310151561071b57805182526020820191506020810190506020830392506106f6565b6001836020036101000a03801982511681845116808217855250505050505090500191505090815260200160405180910390206001018054600181600116156101000203166002900480601f0160208091040260200160405190810160405280929190818152602001828054600181600116156101000203166002900480156107e55780601f106107ba576101008083540402835291602001916107e5565b820191906000526020600020905b8154815290600101906020018083116107c857829003601f168201915b50505050509050919050565b60006004826040518082805190602001908083835b60208310151561082b5780518252602082019150602081019050602083039250610806565b6001836020036101000a038019825116818451168082178552505050505050905001915050908152602001604051809103902060040160009054906101000a900460ff169050919050565b61087e6119ab565b600015156003856040518082805190602001908083835b6020831015156108ba5780518252602082019150602081019050602083039250610895565b6001836020036101000a038019825116818451168082178552505050505050905001915050908152602001604051809103902060009054906101000a900460ff161515141515610998576040517f08c379a00000000000000000000000000000000000000000000000000000000081526004018080602001828103825260258152602001807f54686973206f626a6563746976652068617320616c7265616479206265656e2081526020017f74616b656e00000000000000000000000000000000000000000000000000000081525060400191505060405180910390fd5b60016003856040518082805190602001908083835b6020831015156109d257805182526020820191506020810190506020830392506109ad565b6001836020036101000a038019825116818451168082178552505050505050905001915050908152602001604051809103902060006101000a81548160ff02191690831515021790555060a0604051908101604052803373ffffffffffffffffffffffffffffffffffffffff16815260200184815260200160008152602001838152602001600015158152509050806004856040518082805190602001908083835b602083101515610a995780518252602082019150602081019050602083039250610a74565b6001836020036101000a038019825116818451168082178552505050505050905001915050908152602001604051809103902060008201518160000160006101000a81548173ffffffffffffffffffffffffffffffffffffffff021916908373ffffffffffffffffffffffffffffffffffffffff1602179055506020820151816001019080519060200190610b2f9291906119f3565b50604082015181600201556060820151816003015560808201518160040160006101000a81548160ff0219169083151502179055509050507f24c955436700e71614ae4af58df2186fcc3a8be7f7283f1fd28b453b97ff65f1848484604051808060200180602001848152602001838103835286818151815260200191508051906020019080838360005b83811015610bd5578082015181840152602081019050610bba565b50505050905090810190601f168015610c025780820380516001836020036101000a031916815260200191505b50838103825285818151815260200191508051906020019080838360005b83811015610c3b578082015181840152602081019050610c20565b50505050905090810190601f168015610c685780820380516001836020036101000a031916815260200191505b509550505050505060405180910390a15050505050565b6000809054906101000a900473ffffffffffffffffffffffffffffffffffffffff1673ffffffffffffffffffffffffffffffffffffffff163373ffffffffffffffffffffffffffffffffffffffff16141515610cda57600080fd5b6000809054906101000a900473ffffffffffffffffffffffffffffffffffffffff1673ffffffffffffffffffffffffffffffffffffffff167ff8df31144d9c2f0f6b59d69b8b98abd5459d07f2742c4df920b25aae33c6482060405160405180910390a260008060006101000a81548173ffffffffffffffffffffffffffffffffffffffff021916908373ffffffffffffffffffffffffffffffffffffffff160217905550565b6000809054906101000a900473ffffffffffffffffffffffffffffffffffffffff1681565b606060028054600181600116156101000203166002900480601f016020809104026020016040519081016040528092919081815260200182805460018160011615610100020316600290048015610e3e5780601f10610e1357610100808354040283529160200191610e3e565b820191906000526020600020905b815481529060010190602001808311610e2157829003601f168201915b5050505050905090565b80600015156004826040518082805190602001908083835b602083101515610e855780518252602082019150602081019050602083039250610e60565b6001836020036101000a038019825116818451168082178552505050505050905001915050908152602001604051809103902060040160009054906101000a900460ff161515141515610f66576040517f08c379a00000000000000000000000000000000000000000000000000000000081526004018080602001828103825260328152602001807f546865206f626a6563746976652077617320616c72656164792066756c6c792081526020017f66756e64656420616e6420636c61696d6564000000000000000000000000000081525060400191505060405180910390fd5b610fe7346004846040518082805190602001908083835b602083101515610fa25780518252602082019150602081019050602083039250610f7d565b6001836020036101000a03801982511681845116808217855250505050505090500191505090815260200160405180910390206002015461189590919063ffffffff16565b6004836040518082805190602001908083835b60208310151561101f5780518252602082019150602081019050602083039250610ffa565b6001836020036101000a0380198251168184511680821785525050505050509050019150509081526020016040518091039020600201819055507f4c37d3611c61f6c0a091197574272940725a13412d9d72db9f29bf71f90d72cb82346040518080602001838152602001828103825284818151815260200191508051906020019080838360005b838110156110c25780820151818401526020810190506110a7565b50505050905090810190601f1680156110ef5780820380516001836020036101000a031916815260200191505b50935050505060405180910390a15050565b6000806004836040518082805190602001908083835b60208310151561113c5780518252602082019150602081019050602083039250611117565b6001836020036101000a0380198251168184511680821785525050505050509050019150509081526020016040518091039020600201546004846040518082805190602001908083835b6020831015156111ab5780518252602082019150602081019050602083039250611186565b6001836020036101000a03801982511681845116808217855250505050505090500191505090815260200160405180910390206003015491509150915091565b6000809054906101000a900473ffffffffffffffffffffffffffffffffffffffff1673ffffffffffffffffffffffffffffffffffffffff163373ffffffffffffffffffffffffffffffffffffffff1614151561124657600080fd5b61124f816118b1565b50565b80600015156004826040518082805190602001908083835b60208310151561128f578051825260208201915060208101905060208303925061126a565b6001836020036101000a038019825116818451168082178552505050505050905001915050908152602001604051809103902060040160009054906101000a900460ff161515141515611370576040517f08c379a00000000000000000000000000000000000000000000000000000000081526004018080602001828103825260328152602001807f546865206f626a6563746976652077617320616c72656164792066756c6c792081526020017f66756e64656420616e6420636c61696d6564000000000000000000000000000081525060400191505060405180910390fd5b816004816040518082805190602001908083835b6020831015156113a95780518252602082019150602081019050602083039250611384565b6001836020036101000a038019825116818451168082178552505050505050905001915050908152602001604051809103902060000160009054906101000a900473ffffffffffffffffffffffffffffffffffffffff1673ffffffffffffffffffffffffffffffffffffffff163373ffffffffffffffffffffffffffffffffffffffff161415156114c8576040517f08c379a000000000000000000000000000000000000000000000000000000000815260040180806020018281038252602f8152602001807f5468652073656e646572206973206e6f7420746865207265736f6c766572206f81526020017f6620746865206f626a656374697665000000000000000000000000000000000081525060400191505060405180910390fd5b6004836040518082805190602001908083835b60208310151561150057805182526020820191506020810190506020830392506114db565b6001836020036101000a0380198251168184511680821785525050505050509050019150509081526020016040518091039020600301546004846040518082805190602001908083835b60208310151561156f578051825260208201915060208101905060208303925061154a565b6001836020036101000a03801982511681845116808217855250505050505090500191505090815260200160405180910390206002015410151515611642576040517f08c379a00000000000000000000000000000000000000000000000000000000081526004018080602001828103825260298152602001807f596f7520646f206e6f74206861766520656e6f756768206d6f6e65792067617481526020017f686572656420796574000000000000000000000000000000000000000000000081525060400191505060405180910390fd5b60016004846040518082805190602001908083835b60208310151561167c5780518252602082019150602081019050602083039250611657565b6001836020036101000a038019825116818451168082178552505050505050905001915050908152602001604051809103902060040160006101000a81548160ff0219169083151502179055503373ffffffffffffffffffffffffffffffffffffffff166108fc6004856040518082805190602001908083835b60208310151561171b57805182526020820191506020810190506020830392506116f6565b6001836020036101000a0380198251168184511680821785525050505050509050019150509081526020016040518091039020600201549081150290604051600060405180830381858888f1935050505015801561177d573d6000803e3d6000fd5b507f4c4e7643d416d2bfea06d6cd82b3f56af3cc0573c56d1df53c64148418b368d2836004856040518082805190602001908083835b6020831015156117d857805182526020820191506020810190506020830392506117b3565b6001836020036101000a0380198251168184511680821785525050505050509050019150509081526020016040518091039020600201546040518080602001838152602001828103825284818151815260200191508051906020019080838360005b8381101561185557808201518184015260208101905061183a565b50505050905090810190601f1680156118825780820380516001836020036101000a031916815260200191505b50935050505060405180910390a1505050565b600081830190508281101515156118a857fe5b80905092915050565b600073ffffffffffffffffffffffffffffffffffffffff168173ffffffffffffffffffffffffffffffffffffffff16141515156118ed57600080fd5b8073ffffffffffffffffffffffffffffffffffffffff166000809054906101000a900473ffffffffffffffffffffffffffffffffffffffff1673ffffffffffffffffffffffffffffffffffffffff167f8be0079c531659141344cd1fd0a4f28419497f9722a3daafe3b4186f6b6457e060405160405180910390a3806000806101000a81548173ffffffffffffffffffffffffffffffffffffffff021916908373ffffffffffffffffffffffffffffffffffffffff16021790555050565b60a060405190810160405280600073ffffffffffffffffffffffffffffffffffffffff1681526020016060815260200160008152602001600081526020016000151581525090565b828054600181600116156101000203166002900490600052602060002090601f016020900481019282601f10611a3457805160ff1916838001178555611a62565b82800160010185558215611a62579182015b82811115611a61578251825591602001919060010190611a46565b5b509050611a6f9190611a73565b5090565b611a9591905b80821115611a91576000816000905550600101611a79565b5090565b905600a165627a7a72305820681f0ce93ffff37e467b90a101c86ad52925aa42f12cd3fadfd5cbb6cf7995210029a165627a7a723058208d02470c5d36a52bb426a5fd297a3accc7a6f4dd3afc1ff52c6c8d21ea48ca3b0029",
  "source": "pragma solidity 0.4.25;\n\n/**\n * @title NatureRegistry\n * A registry with natural resources in particular geographical areas\n */\n\nimport \"contracts/NaturalResource.sol\";\nimport \"contracts/interfaces/INatureRegistry.sol\";\n\ncontract NatureRegistry is INatureRegistry {\n\n  struct Resource {\n\n    address resourceContract;\n\n    string resourceGeoPosition;\n\n    //Used to denote if a resource is still unharmed or if it was destroyed\n\n    bool protected;\n\n  }\n\n  //IPFS hash where all areas data is stored\n\n  string allAreas;\n\n  mapping(address => bool) managers;\n\n  mapping(string => bool) availableAreas;\n\n  mapping(string => Resource[]) areas;\n\n  modifier onlyManager() {\n\n    require(managers[msg.sender] == true, \"The caller is not a manager\");\n\n    _;\n\n  }\n\n  constructor() public {\n\n    managers[msg.sender] = true;\n\n  }\n\n  function addManager(address manager) public onlyManager {\n\n    require(managers[manager] == false, \"This address is already a manager\");\n\n    managers[manager] = true;\n\n    emit AddedManager(msg.sender, manager);\n\n  }\n\n  function addArea(string _allAreas, string newArea) public onlyManager {\n\n    allAreas = _allAreas;\n\n    availableAreas[newArea] = true;\n\n    emit AddedArea(msg.sender, _allAreas, newArea);\n\n  }\n\n  function addResource(string area, string resourceName, string geoPosition) public onlyManager {\n\n    require(availableAreas[area] == true, \"This area is not registered\");\n\n    address _resource = new NaturalResource(resourceName);\n\n    Resource memory newResource = Resource(_resource, geoPosition, true);\n\n    areas[area].push(newResource);\n\n    emit AddedResource(area, resourceName, geoPosition);\n\n  }\n\n  function toggleProtection(string area, uint256 resourcePosition) public onlyManager {\n\n    require(availableAreas[area] == true, \"This area is not registered\");\n    require(areas[area].length > resourcePosition, \"The resource position is not within bounds\");\n\n    areas[area][resourcePosition].protected = !areas[area][resourcePosition].protected;\n\n    emit ToggledProtection(msg.sender, area, resourcePosition);\n\n  }\n\n  //GETTERS\n\n  function getAllAreas() public view returns (string) {\n\n    return allAreas;\n\n  }\n\n  function isManager(address manager) public view returns (bool) {\n\n    return managers[manager];\n\n  }\n\n  function isAreaAvailable(string area) public view returns (bool) {\n\n    return availableAreas[area];\n\n  }\n\n  function getResourceFromArea(string area, uint256 resourcePosition)\n    public view returns (address, string, bool) {\n\n    return (\n            areas[area][resourcePosition].resourceContract,\n            areas[area][resourcePosition].resourceGeoPosition,\n            areas[area][resourcePosition].protected\n           );\n\n  }\n\n}\n",
  "sourcePath": "/home/stefan/Work/token_tree/contracts/NatureRegistry.sol",
  "compiler": {
    "name": "solc",
    "version": "0.4.25+commit.59dbf8f1.Emscripten.clang"
  },
  "schemaVersion": "2.0.2",
  "updatedAt": "2019-01-16T15:43:47.272Z"
}