{
  "contractName": "NaturalResource",
  "abi": [
    {
      "constant": false,
      "inputs": [],
      "name": "renounceOwnership",
      "outputs": [],
      "payable": false,
      "stateMutability": "nonpayable",
      "type": "function"
    },
    {
      "constant": true,
      "inputs": [],
      "name": "owner",
      "outputs": [
        {
          "name": "",
          "type": "address"
        }
      ],
      "payable": false,
      "stateMutability": "view",
      "type": "function"
    },
    {
      "constant": false,
      "inputs": [
        {
          "name": "_newOwner",
          "type": "address"
        }
      ],
      "name": "transferOwnership",
      "outputs": [],
      "payable": false,
      "stateMutability": "nonpayable",
      "type": "function"
    },
    {
      "inputs": [
        {
          "name": "resourceName",
          "type": "string"
        }
      ],
      "payable": false,
      "stateMutability": "nonpayable",
      "type": "constructor"
    },
    {
      "anonymous": false,
      "inputs": [
        {
          "indexed": true,
          "name": "previousOwner",
          "type": "address"
        }
      ],
      "name": "OwnershipRenounced",
      "type": "event"
    },
    {
      "anonymous": false,
      "inputs": [
        {
          "indexed": true,
          "name": "previousOwner",
          "type": "address"
        },
        {
          "indexed": true,
          "name": "newOwner",
          "type": "address"
        }
      ],
      "name": "OwnershipTransferred",
      "type": "event"
    },
    {
      "anonymous": false,
      "inputs": [
        {
          "indexed": false,
          "name": "objName",
          "type": "string"
        },
        {
          "indexed": false,
          "name": "details",
          "type": "string"
        },
        {
          "indexed": false,
          "name": "neededFunding",
          "type": "uint256"
        }
      ],
      "name": "ProposedObjective",
      "type": "event"
    },
    {
      "anonymous": false,
      "inputs": [
        {
          "indexed": false,
          "name": "objName",
          "type": "string"
        },
        {
          "indexed": false,
          "name": "money",
          "type": "uint256"
        }
      ],
      "name": "Tipped",
      "type": "event"
    },
    {
      "anonymous": false,
      "inputs": [
        {
          "indexed": false,
          "name": "objName",
          "type": "string"
        },
        {
          "indexed": false,
          "name": "money",
          "type": "uint256"
        }
      ],
      "name": "ClaimedMoney",
      "type": "event"
    },
    {
      "constant": false,
      "inputs": [
        {
          "name": "updatedIPFSList",
          "type": "string"
        },
        {
          "name": "objName",
          "type": "string"
        },
        {
          "name": "details",
          "type": "string"
        },
        {
          "name": "neededFunding",
          "type": "uint256"
        }
      ],
      "name": "proposeObjective",
      "outputs": [],
      "payable": false,
      "stateMutability": "nonpayable",
      "type": "function"
    },
    {
      "constant": false,
      "inputs": [
        {
          "name": "objName",
          "type": "string"
        }
      ],
      "name": "tip",
      "outputs": [],
      "payable": true,
      "stateMutability": "payable",
      "type": "function"
    },
    {
      "constant": false,
      "inputs": [
        {
          "name": "objName",
          "type": "string"
        }
      ],
      "name": "claim",
      "outputs": [],
      "payable": false,
      "stateMutability": "nonpayable",
      "type": "function"
    },
    {
      "constant": true,
      "inputs": [],
      "name": "getResourceName",
      "outputs": [
        {
          "name": "",
          "type": "string"
        }
      ],
      "payable": false,
      "stateMutability": "view",
      "type": "function"
    },
    {
      "constant": true,
      "inputs": [
        {
          "name": "objName",
          "type": "string"
        }
      ],
      "name": "getObjectiveResolver",
      "outputs": [
        {
          "name": "",
          "type": "address"
        }
      ],
      "payable": false,
      "stateMutability": "view",
      "type": "function"
    },
    {
      "constant": true,
      "inputs": [
        {
          "name": "objName",
          "type": "string"
        }
      ],
      "name": "getObjectiveDetails",
      "outputs": [
        {
          "name": "",
          "type": "string"
        }
      ],
      "payable": false,
      "stateMutability": "view",
      "type": "function"
    },
    {
      "constant": true,
      "inputs": [
        {
          "name": "objName",
          "type": "string"
        }
      ],
      "name": "objectiveIsClaimed",
      "outputs": [
        {
          "name": "",
          "type": "bool"
        }
      ],
      "payable": false,
      "stateMutability": "view",
      "type": "function"
    },
    {
      "constant": true,
      "inputs": [
        {
          "name": "objName",
          "type": "string"
        }
      ],
      "name": "getObjectiveFundingLevels",
      "outputs": [
        {
          "name": "",
          "type": "uint256"
        },
        {
          "name": "",
          "type": "uint256"
        }
      ],
      "payable": false,
      "stateMutability": "view",
      "type": "function"
    }
  ],
  "bytecode": "0x60806040523480156200001157600080fd5b5060405162001c1938038062001c1983398101806040528101908080518201929190505050336000806101000a81548173ffffffffffffffffffffffffffffffffffffffff021916908373ffffffffffffffffffffffffffffffffffffffff16021790555080600290805190602001906200008e92919062000096565b505062000145565b828054600181600116156101000203166002900490600052602060002090601f016020900481019282601f10620000d957805160ff19168380011785556200010a565b828001600101855582156200010a579182015b8281111562000109578251825591602001919060010190620000ec565b5b5090506200011991906200011d565b5090565b6200014291905b808211156200013e57600081600090555060010162000124565b5090565b90565b611ac480620001556000396000f3006080604052600436106100af576000357c0100000000000000000000000000000000000000000000000000000000900463ffffffff1680632e87787f146100b45780634e7c910c1461015d57806355d286491461023f578063609b8f7a146102c0578063715018a6146103bf5780638da5cb5b146103d65780638e5257011461042d578063cb56393c146104bd578063e2611e4414610519578063f2fde38b1461059d578063f3fe12c9146105e0575b600080fd5b3480156100c057600080fd5b5061011b600480360381019080803590602001908201803590602001908080601f0160208091040260200160405190810160405280939291908181526020018383808284378201915050505050509192919290505050610649565b604051808273ffffffffffffffffffffffffffffffffffffffff1673ffffffffffffffffffffffffffffffffffffffff16815260200191505060405180910390f35b34801561016957600080fd5b506101c4600480360381019080803590602001908201803590602001908080601f01602080910402602001604051908101604052809392919081815260200183838082843782019150505050505091929192905050506106e1565b6040518080602001828103825283818151815260200191508051906020019080838360005b838110156102045780820151818401526020810190506101e9565b50505050905090810190601f1680156102315780820380516001836020036101000a031916815260200191505b509250505060405180910390f35b34801561024b57600080fd5b506102a6600480360381019080803590602001908201803590602001908080601f01602080910402602001604051908101604052809392919081815260200183838082843782019150505050505091929192905050506107f1565b604051808215151515815260200191505060405180910390f35b3480156102cc57600080fd5b506103bd600480360381019080803590602001908201803590602001908080601f0160208091040260200160405190810160405280939291908181526020018383808284378201915050505050509192919290803590602001908201803590602001908080601f0160208091040260200160405190810160405280939291908181526020018383808284378201915050505050509192919290803590602001908201803590602001908080601f016020809104026020016040519081016040528093929190818152602001838380828437820191505050505050919291929080359060200190929190505050610876565b005b3480156103cb57600080fd5b506103d4610c7f565b005b3480156103e257600080fd5b506103eb610d81565b604051808273ffffffffffffffffffffffffffffffffffffffff1673ffffffffffffffffffffffffffffffffffffffff16815260200191505060405180910390f35b34801561043957600080fd5b50610442610da6565b6040518080602001828103825283818151815260200191508051906020019080838360005b83811015610482578082015181840152602081019050610467565b50505050905090810190601f1680156104af5780820380516001836020036101000a031916815260200191505b509250505060405180910390f35b610517600480360381019080803590602001908201803590602001908080601f0160208091040260200160405190810160405280939291908181526020018383808284378201915050505050509192919290505050610e48565b005b34801561052557600080fd5b50610580600480360381019080803590602001908201803590602001908080601f0160208091040260200160405190810160405280939291908181526020018383808284378201915050505050509192919290505050611101565b604051808381526020018281526020019250505060405180910390f35b3480156105a957600080fd5b506105de600480360381019080803573ffffffffffffffffffffffffffffffffffffffff1690602001909291905050506111eb565b005b3480156105ec57600080fd5b50610647600480360381019080803590602001908201803590602001908080601f0160208091040260200160405190810160405280939291908181526020018383808284378201915050505050509192919290505050611252565b005b60006004826040518082805190602001908083835b602083101515610683578051825260208201915060208101905060208303925061065e565b6001836020036101000a038019825116818451168082178552505050505050905001915050908152602001604051809103902060000160009054906101000a900473ffffffffffffffffffffffffffffffffffffffff169050919050565b60606004826040518082805190602001908083835b60208310151561071b57805182526020820191506020810190506020830392506106f6565b6001836020036101000a03801982511681845116808217855250505050505090500191505090815260200160405180910390206001018054600181600116156101000203166002900480601f0160208091040260200160405190810160405280929190818152602001828054600181600116156101000203166002900480156107e55780601f106107ba576101008083540402835291602001916107e5565b820191906000526020600020905b8154815290600101906020018083116107c857829003601f168201915b50505050509050919050565b60006004826040518082805190602001908083835b60208310151561082b5780518252602082019150602081019050602083039250610806565b6001836020036101000a038019825116818451168082178552505050505050905001915050908152602001604051809103902060040160009054906101000a900460ff169050919050565b61087e6119ab565b600015156003856040518082805190602001908083835b6020831015156108ba5780518252602082019150602081019050602083039250610895565b6001836020036101000a038019825116818451168082178552505050505050905001915050908152602001604051809103902060009054906101000a900460ff161515141515610998576040517f08c379a00000000000000000000000000000000000000000000000000000000081526004018080602001828103825260258152602001807f54686973206f626a6563746976652068617320616c7265616479206265656e2081526020017f74616b656e00000000000000000000000000000000000000000000000000000081525060400191505060405180910390fd5b60016003856040518082805190602001908083835b6020831015156109d257805182526020820191506020810190506020830392506109ad565b6001836020036101000a038019825116818451168082178552505050505050905001915050908152602001604051809103902060006101000a81548160ff02191690831515021790555060a0604051908101604052803373ffffffffffffffffffffffffffffffffffffffff16815260200184815260200160008152602001838152602001600015158152509050806004856040518082805190602001908083835b602083101515610a995780518252602082019150602081019050602083039250610a74565b6001836020036101000a038019825116818451168082178552505050505050905001915050908152602001604051809103902060008201518160000160006101000a81548173ffffffffffffffffffffffffffffffffffffffff021916908373ffffffffffffffffffffffffffffffffffffffff1602179055506020820151816001019080519060200190610b2f9291906119f3565b50604082015181600201556060820151816003015560808201518160040160006101000a81548160ff0219169083151502179055509050507f24c955436700e71614ae4af58df2186fcc3a8be7f7283f1fd28b453b97ff65f1848484604051808060200180602001848152602001838103835286818151815260200191508051906020019080838360005b83811015610bd5578082015181840152602081019050610bba565b50505050905090810190601f168015610c025780820380516001836020036101000a031916815260200191505b50838103825285818151815260200191508051906020019080838360005b83811015610c3b578082015181840152602081019050610c20565b50505050905090810190601f168015610c685780820380516001836020036101000a031916815260200191505b509550505050505060405180910390a15050505050565b6000809054906101000a900473ffffffffffffffffffffffffffffffffffffffff1673ffffffffffffffffffffffffffffffffffffffff163373ffffffffffffffffffffffffffffffffffffffff16141515610cda57600080fd5b6000809054906101000a900473ffffffffffffffffffffffffffffffffffffffff1673ffffffffffffffffffffffffffffffffffffffff167ff8df31144d9c2f0f6b59d69b8b98abd5459d07f2742c4df920b25aae33c6482060405160405180910390a260008060006101000a81548173ffffffffffffffffffffffffffffffffffffffff021916908373ffffffffffffffffffffffffffffffffffffffff160217905550565b6000809054906101000a900473ffffffffffffffffffffffffffffffffffffffff1681565b606060028054600181600116156101000203166002900480601f016020809104026020016040519081016040528092919081815260200182805460018160011615610100020316600290048015610e3e5780601f10610e1357610100808354040283529160200191610e3e565b820191906000526020600020905b815481529060010190602001808311610e2157829003601f168201915b5050505050905090565b80600015156004826040518082805190602001908083835b602083101515610e855780518252602082019150602081019050602083039250610e60565b6001836020036101000a038019825116818451168082178552505050505050905001915050908152602001604051809103902060040160009054906101000a900460ff161515141515610f66576040517f08c379a00000000000000000000000000000000000000000000000000000000081526004018080602001828103825260328152602001807f546865206f626a6563746976652077617320616c72656164792066756c6c792081526020017f66756e64656420616e6420636c61696d6564000000000000000000000000000081525060400191505060405180910390fd5b610fe7346004846040518082805190602001908083835b602083101515610fa25780518252602082019150602081019050602083039250610f7d565b6001836020036101000a03801982511681845116808217855250505050505090500191505090815260200160405180910390206002015461189590919063ffffffff16565b6004836040518082805190602001908083835b60208310151561101f5780518252602082019150602081019050602083039250610ffa565b6001836020036101000a0380198251168184511680821785525050505050509050019150509081526020016040518091039020600201819055507f4c37d3611c61f6c0a091197574272940725a13412d9d72db9f29bf71f90d72cb82346040518080602001838152602001828103825284818151815260200191508051906020019080838360005b838110156110c25780820151818401526020810190506110a7565b50505050905090810190601f1680156110ef5780820380516001836020036101000a031916815260200191505b50935050505060405180910390a15050565b6000806004836040518082805190602001908083835b60208310151561113c5780518252602082019150602081019050602083039250611117565b6001836020036101000a0380198251168184511680821785525050505050509050019150509081526020016040518091039020600201546004846040518082805190602001908083835b6020831015156111ab5780518252602082019150602081019050602083039250611186565b6001836020036101000a03801982511681845116808217855250505050505090500191505090815260200160405180910390206003015491509150915091565b6000809054906101000a900473ffffffffffffffffffffffffffffffffffffffff1673ffffffffffffffffffffffffffffffffffffffff163373ffffffffffffffffffffffffffffffffffffffff1614151561124657600080fd5b61124f816118b1565b50565b80600015156004826040518082805190602001908083835b60208310151561128f578051825260208201915060208101905060208303925061126a565b6001836020036101000a038019825116818451168082178552505050505050905001915050908152602001604051809103902060040160009054906101000a900460ff161515141515611370576040517f08c379a00000000000000000000000000000000000000000000000000000000081526004018080602001828103825260328152602001807f546865206f626a6563746976652077617320616c72656164792066756c6c792081526020017f66756e64656420616e6420636c61696d6564000000000000000000000000000081525060400191505060405180910390fd5b816004816040518082805190602001908083835b6020831015156113a95780518252602082019150602081019050602083039250611384565b6001836020036101000a038019825116818451168082178552505050505050905001915050908152602001604051809103902060000160009054906101000a900473ffffffffffffffffffffffffffffffffffffffff1673ffffffffffffffffffffffffffffffffffffffff163373ffffffffffffffffffffffffffffffffffffffff161415156114c8576040517f08c379a000000000000000000000000000000000000000000000000000000000815260040180806020018281038252602f8152602001807f5468652073656e646572206973206e6f7420746865207265736f6c766572206f81526020017f6620746865206f626a656374697665000000000000000000000000000000000081525060400191505060405180910390fd5b6004836040518082805190602001908083835b60208310151561150057805182526020820191506020810190506020830392506114db565b6001836020036101000a0380198251168184511680821785525050505050509050019150509081526020016040518091039020600301546004846040518082805190602001908083835b60208310151561156f578051825260208201915060208101905060208303925061154a565b6001836020036101000a03801982511681845116808217855250505050505090500191505090815260200160405180910390206002015410151515611642576040517f08c379a00000000000000000000000000000000000000000000000000000000081526004018080602001828103825260298152602001807f596f7520646f206e6f74206861766520656e6f756768206d6f6e65792067617481526020017f686572656420796574000000000000000000000000000000000000000000000081525060400191505060405180910390fd5b60016004846040518082805190602001908083835b60208310151561167c5780518252602082019150602081019050602083039250611657565b6001836020036101000a038019825116818451168082178552505050505050905001915050908152602001604051809103902060040160006101000a81548160ff0219169083151502179055503373ffffffffffffffffffffffffffffffffffffffff166108fc6004856040518082805190602001908083835b60208310151561171b57805182526020820191506020810190506020830392506116f6565b6001836020036101000a0380198251168184511680821785525050505050509050019150509081526020016040518091039020600201549081150290604051600060405180830381858888f1935050505015801561177d573d6000803e3d6000fd5b507f4c4e7643d416d2bfea06d6cd82b3f56af3cc0573c56d1df53c64148418b368d2836004856040518082805190602001908083835b6020831015156117d857805182526020820191506020810190506020830392506117b3565b6001836020036101000a0380198251168184511680821785525050505050509050019150509081526020016040518091039020600201546040518080602001838152602001828103825284818151815260200191508051906020019080838360005b8381101561185557808201518184015260208101905061183a565b50505050905090810190601f1680156118825780820380516001836020036101000a031916815260200191505b50935050505060405180910390a1505050565b600081830190508281101515156118a857fe5b80905092915050565b600073ffffffffffffffffffffffffffffffffffffffff168173ffffffffffffffffffffffffffffffffffffffff16141515156118ed57600080fd5b8073ffffffffffffffffffffffffffffffffffffffff166000809054906101000a900473ffffffffffffffffffffffffffffffffffffffff1673ffffffffffffffffffffffffffffffffffffffff167f8be0079c531659141344cd1fd0a4f28419497f9722a3daafe3b4186f6b6457e060405160405180910390a3806000806101000a81548173ffffffffffffffffffffffffffffffffffffffff021916908373ffffffffffffffffffffffffffffffffffffffff16021790555050565b60a060405190810160405280600073ffffffffffffffffffffffffffffffffffffffff1681526020016060815260200160008152602001600081526020016000151581525090565b828054600181600116156101000203166002900490600052602060002090601f016020900481019282601f10611a3457805160ff1916838001178555611a62565b82800160010185558215611a62579182015b82811115611a61578251825591602001919060010190611a46565b5b509050611a6f9190611a73565b5090565b611a9591905b80821115611a91576000816000905550600101611a79565b5090565b905600a165627a7a72305820681f0ce93ffff37e467b90a101c86ad52925aa42f12cd3fadfd5cbb6cf7995210029",
  "source": "pragma solidity 0.4.25;\n\n/**\n * @title NaturalResource\n * A NaturalResource has many needs. In this contract we call these needs 'objectives'\n   Each objective has a team that will accomplish it (the resolver) and a minimum level of funds which need to be gathered\n */\n\nimport \"contracts/zeppelin/ownership/Ownable.sol\";\nimport \"contracts/zeppelin/SafeMath.sol\";\n\nimport \"contracts/interfaces/INaturalResource.sol\";\n\ncontract NaturalResource is INaturalResource, Ownable {\n\n    using SafeMath for uint256;\n\n    struct Objective {\n\n      address resolver;\n\n      //IPFS address to the details of the objective\n\n      string objDetails;\n\n      //Funding data\n\n      uint256 currentFunding;\n\n      uint256 necessaryFunding;\n\n      bool claimed;\n\n    }\n\n    //IPFS hash where all objectives are stored\n\n    string objectivesList;\n\n    //What type of natural resource is this?\n\n    string naturalResourceType;\n\n    /**\n\n    We use this to determine if an objective is already taken because if we check with\n    objectiveData, web3 might through an error with uninitialized objectives\n\n    **/\n\n    mapping (string => bool) objectiveTaken;\n\n    mapping (string => Objective) objectiveData;\n\n    modifier onlyObjectiveCreator(string objName) {\n\n      require(msg.sender == objectiveData[objName].resolver, \"The sender is not the resolver of the objective\");\n\n      _;\n\n    }\n\n    modifier alreadyClaimed(string objName) {\n\n      require(objectiveData[objName].claimed == false, \"The objective was already fully funded and claimed\");\n\n      _;\n\n    }\n\n    /**\n     * @dev The constructor sets the original `trigger` of the contract to the sender\n     * account.\n     */\n\n    constructor(string resourceName) public {\n\n      naturalResourceType = resourceName;\n\n    }\n\n    /**\n     * @dev Propose a new objective for this resource\n     * @param updatedIPFSList The new IPFS hash of the list of objectives\n     * @param objName The name of the objective\n     * @param details The IPFS hash where the details of this objective are stored\n     * @param neededFunding How much money this object needs\n     */\n\n    function proposeObjective(string updatedIPFSList, string objName,\n        string details, uint256 neededFunding) public {\n\n      require(objectiveTaken[objName] == false, \"This objective has already been taken\");\n\n      objectiveTaken[objName] = true;\n\n      Objective memory newObjective = Objective(msg.sender, details, 0, neededFunding, false);\n\n      objectiveData[objName] = newObjective;\n\n      emit ProposedObjective(objName, details, neededFunding);\n\n    }\n\n    /**\n     * @dev Propose a new objective for this resource\n     * @param objName The name of the objective to tip\n     */\n\n    function tip(string objName) public payable alreadyClaimed(objName) {\n\n      objectiveData[objName].currentFunding = objectiveData[objName].currentFunding.add(msg.value);\n\n      emit Tipped(objName, msg.value);\n\n    }\n\n    /**\n     * @dev Claim the money for an objective\n     * @param objName The name of the objective to tip\n     */\n\n    function claim(string objName) public alreadyClaimed(objName) onlyObjectiveCreator(objName) {\n\n      require(objectiveData[objName].currentFunding >= objectiveData[objName].necessaryFunding,\n          \"You do not have enough money gathered yet\");\n\n      objectiveData[objName].claimed = true;\n\n      msg.sender.transfer(objectiveData[objName].currentFunding);\n\n      emit ClaimedMoney(objName, objectiveData[objName].currentFunding);\n\n    }\n\n    //GETTERS\n\n    function getResourceName() public view returns (string) {\n\n      return naturalResourceType;\n\n    }\n\n    function getObjectiveResolver(string objName) public view returns (address) {\n\n      return objectiveData[objName].resolver;\n\n    }\n\n    function getObjectiveDetails(string objName) public view returns (string) {\n\n      return objectiveData[objName].objDetails;\n\n    }\n\n    function objectiveIsClaimed(string objName) public view returns (bool) {\n\n      return objectiveData[objName].claimed;\n\n    }\n\n    function getObjectiveFundingLevels(string objName) public view returns (uint256, uint256) {\n\n      return (objectiveData[objName].currentFunding, objectiveData[objName].necessaryFunding);\n\n    }\n\n}\n",
  "sourcePath": "contracts/NaturalResource.sol",
  "compiler": {
    "name": "solc",
    "version": "0.4.25+commit.59dbf8f1.Emscripten.clang"
  },
  "schemaVersion": "2.0.2",
  "updatedAt": "2019-01-15T17:14:58.010Z"
}